{"src/contracts/Contract.sol":{"QuickCoin":{"abi":[{"inputs":[],"stateMutability":"nonpayable","type":"constructor"},{"anonymous":false,"inputs":[{"indexed":true,"internalType":"address","name":"account","type":"address"},{"indexed":false,"internalType":"string","name":"apiKey","type":"string"}],"name":"ApiKeyGenerated","type":"event"},{"anonymous":false,"inputs":[{"indexed":false,"internalType":"uint256","name":"newCommission","type":"uint256"}],"name":"CommissionChanged","type":"event"},{"anonymous":false,"inputs":[{"indexed":false,"internalType":"string","name":"apiKey","type":"string"},{"indexed":true,"internalType":"address","name":"sender","type":"address"}],"name":"Log","type":"event"},{"anonymous":false,"inputs":[{"indexed":true,"internalType":"address","name":"buyer","type":"address"},{"indexed":false,"internalType":"string","name":"apiKey","type":"string"},{"indexed":false,"internalType":"uint256","name":"amount","type":"uint256"}],"name":"PaymentProcessed","type":"event"},{"anonymous":false,"inputs":[{"indexed":true,"internalType":"address","name":"platformFeeRecipient","type":"address"},{"indexed":false,"internalType":"uint256","name":"platformFeeBps","type":"uint256"}],"name":"PlatformFeeInfoUpdated","type":"event"},{"inputs":[],"name":"generateApiKey","outputs":[],"stateMutability":"payable","type":"function"},{"inputs":[{"internalType":"address","name":"_addr","type":"address"}],"name":"getApiKey","outputs":[{"internalType":"string","name":"","type":"string"}],"stateMutability":"view","type":"function"},{"inputs":[],"name":"getPlatformFeeInfo","outputs":[{"internalType":"address","name":"","type":"address"},{"internalType":"uint16","name":"","type":"uint16"}],"stateMutability":"view","type":"function"},{"inputs":[],"name":"owner","outputs":[{"internalType":"address","name":"","type":"address"}],"stateMutability":"view","type":"function"},{"inputs":[{"internalType":"string","name":"apiKey","type":"string"}],"name":"processPayment","outputs":[],"stateMutability":"payable","type":"function"},{"inputs":[{"internalType":"address","name":"_platformFeeRecipient","type":"address"},{"internalType":"uint256","name":"_platformFeeBps","type":"uint256"}],"name":"setPlatformFeeInfo","outputs":[],"stateMutability":"nonpayable","type":"function"}],"evm":{"bytecode":{"linkReferences":{},"object":"608060405234801561001057600080fd5b50600380546001600160a01b031916331790556100427366353cc9331d1ba1afcfc6f31cc2116ffe102ce26000610047565b6100fa565b61271081111561008f5760405162461bcd60e51b815260206004820152600f60248201526e45786365656473206d61782062707360881b604482015260640160405180910390fd5b600080546001600160b01b031916600160a01b61ffff8416026001600160a01b031916176001600160a01b0384169081179091556040518281527fe2497bd806ec41a6e0dd992c29a72efc0ef8fec9092d1978fd4a1e00b2f183049060200160405180910390a25050565b610c39806101096000396000f3fe6080604052600436106100555760003560e01c80631e7ac4881461005a5780634a95762b1461007c5780638da5cb5b146100b2578063b7655d70146100ea578063d45573f6146100fd578063d6673ff514610134575b600080fd5b34801561006657600080fd5b5061007a610075366004610829565b61013c565b005b34801561008857600080fd5b5061009c610097366004610853565b61019a565b6040516100a991906108ca565b60405180910390f35b3480156100be57600080fd5b506003546100d2906001600160a01b031681565b6040516001600160a01b0390911681526020016100a9565b61007a6100f83660046108f3565b61028e565b34801561010957600080fd5b50600054604080516001600160a01b0383168152600160a01b90920461ffff166020830152016100a9565b61007a610398565b6003546001600160a01b0316331461018c5760405162461bcd60e51b815260206004820152600e60248201526d139bdd08185d5d1a1bdc9a5e995960921b60448201526064015b60405180910390fd5b6101968282610523565b5050565b6001600160a01b0381166000908152600160205260408120805460609291906101c2906109a4565b80601f01602080910402602001604051908101604052809291908181526020018280546101ee906109a4565b801561023b5780601f106102105761010080835404028352916020019161023b565b820191906000526020600020905b81548152906001019060200180831161021e57829003601f168201915b505050505090508051600014156102885760405162461bcd60e51b8152602060048201526011602482015270105412481ad95e481b9bdd08199bdd5b99607a1b6044820152606401610183565b92915050565b6000610299826105cb565b600080549192506001600160a01b03821691600160a01b900461ffff16906103e86102c483346109f5565b6102ce9190610a2a565b905060006102dc8234610a3e565b6040519091506001600160a01b0386169082156108fc029083906000818181858888f19350505050158015610315573d6000803e3d6000fd5b506040516001600160a01b0385169083156108fc029084906000818181858888f1935050505015801561034c573d6000803e3d6000fd5b50846001600160a01b03167ff09276bc05d650567d338acbe6495a3ddfdfce09933f479e23c1ac7fa96504768734604051610388929190610a55565b60405180910390a2505050505050565b33600090815260016020526040902080546103b2906109a4565b1590506103fa5760405162461bcd60e51b8152602060048201526016602482015275415049206b657920616c72656164792065786973747360501b6044820152606401610183565b6040516bffffffffffffffffffffffff193360601b166020820152426034820152446054820152600090607401604051602081830303815290604052805190602001209050600061044a82610646565b336000908152600160209081526040909120825192935061046f929091840190610779565b50336002826040516104819190610a77565b90815260405190819003602001812080546001600160a01b03939093166001600160a01b0319909316929092179091556002906104bf908390610a77565b9081526040805191829003602090810183205433600090815260019092529190206001600160a01b03909116917fc8288886895912c0d876e8dfa30d39a86f2547d592f2cd8378d622484366445e9161051791610a93565b60405180910390a25050565b6127108111156105675760405162461bcd60e51b815260206004820152600f60248201526e45786365656473206d61782062707360881b6044820152606401610183565b600080546001600160b01b031916600160a01b61ffff8416026001600160a01b031916176001600160a01b0384169081179091556040518281527fe2497bd806ec41a6e0dd992c29a72efc0ef8fec9092d1978fd4a1e00b2f1830490602001610517565b6000806002836040516105de9190610a77565b908152604051908190036020019020546001600160a01b03169050806102885760405162461bcd60e51b815260206004820152601d60248201527f41646472657373206e6f7420666f756e6420666f7220415049206b65790000006044820152606401610183565b6040805181815260608181018352916000918291602082018180368337019050509050600091505b60208260ff161015610740576000848360ff166020811061069157610691610b3b565b1a90506106a76106a2601083610b51565b610747565b826106b3856002610b73565b60ff16815181106106c6576106c6610b3b565b60200101906001600160f81b031916908160001a9053506106eb6106a2601083610b9c565b826106f7856002610b73565b610702906001610bbe565b60ff168151811061071557610715610b3b565b60200101906001600160f81b031916908160001a90535050818061073890610be3565b92505061066e565b9392505050565b6000600a8260ff16101561076957610760826030610bbe565b60f81b92915050565b610760826057610bbe565b919050565b828054610785906109a4565b90600052602060002090601f0160209004810192826107a757600085556107ed565b82601f106107c057805160ff19168380011785556107ed565b828001600101855582156107ed579182015b828111156107ed5782518255916020019190600101906107d2565b506107f99291506107fd565b5090565b5b808211156107f957600081556001016107fe565b80356001600160a01b038116811461077457600080fd5b6000806040838503121561083c57600080fd5b61084583610812565b946020939093013593505050565b60006020828403121561086557600080fd5b61074082610812565b60005b83811015610889578181015183820152602001610871565b83811115610898576000848401525b50505050565b600081518084526108b681602086016020860161086e565b601f01601f19169290920160200192915050565b602081526000610740602083018461089e565b634e487b7160e01b600052604160045260246000fd5b60006020828403121561090557600080fd5b813567ffffffffffffffff8082111561091d57600080fd5b818401915084601f83011261093157600080fd5b813581811115610943576109436108dd565b604051601f8201601f19908116603f0116810190838211818310171561096b5761096b6108dd565b8160405282815287602084870101111561098457600080fd5b826020860160208301376000928101602001929092525095945050505050565b600181811c908216806109b857607f821691505b602082108114156109d957634e487b7160e01b600052602260045260246000fd5b50919050565b634e487b7160e01b600052601160045260246000fd5b6000816000190483118215151615610a0f57610a0f6109df565b500290565b634e487b7160e01b600052601260045260246000fd5b600082610a3957610a39610a14565b500490565b600082821015610a5057610a506109df565b500390565b604081526000610a68604083018561089e565b90508260208301529392505050565b60008251610a8981846020870161086e565b9190910192915050565b600060208083526000845481600182811c915080831680610ab557607f831692505b858310811415610ad357634e487b7160e01b85526022600452602485fd5b878601838152602001818015610af05760018114610b0157610b2c565b60ff19861682528782019650610b2c565b60008b81526020902060005b86811015610b2657815484820152908501908901610b0d565b83019750505b50949998505050505050505050565b634e487b7160e01b600052603260045260246000fd5b600060ff831680610b6457610b64610a14565b8060ff84160491505092915050565b600060ff821660ff84168160ff0481118215151615610b9457610b946109df565b029392505050565b600060ff831680610baf57610baf610a14565b8060ff84160691505092915050565b600060ff821660ff84168060ff03821115610bdb57610bdb6109df565b019392505050565b600060ff821660ff811415610bfa57610bfa6109df565b6001019291505056fea2646970667358221220bcb66166b612933bbcffad793d82b660c67071e939e23f0080d5795c1c18dfe964736f6c63430008090033","opcodes":"PUSH1 0x80 PUSH1 0x40 MSTORE CALLVALUE DUP1 ISZERO PUSH2 0x10 JUMPI PUSH1 0x0 DUP1 REVERT JUMPDEST POP PUSH1 0x3 DUP1 SLOAD PUSH1 0x1 PUSH1 0x1 PUSH1 0xA0 SHL SUB NOT AND CALLER OR SWAP1 SSTORE PUSH2 0x42 PUSH20 0x66353CC9331D1BA1AFCFC6F31CC2116FFE102CE2 PUSH1 0x0 PUSH2 0x47 JUMP JUMPDEST PUSH2 0xFA JUMP JUMPDEST PUSH2 0x2710 DUP2 GT ISZERO PUSH2 0x8F JUMPI PUSH1 0x40 MLOAD PUSH3 0x461BCD PUSH1 0xE5 SHL DUP2 MSTORE PUSH1 0x20 PUSH1 0x4 DUP3 ADD MSTORE PUSH1 0xF PUSH1 0x24 DUP3 ADD MSTORE PUSH15 0x45786365656473206D617820627073 PUSH1 0x88 SHL PUSH1 0x44 DUP3 ADD MSTORE PUSH1 0x64 ADD PUSH1 0x40 MLOAD DUP1 SWAP2 SUB SWAP1 REVERT JUMPDEST PUSH1 0x0 DUP1 SLOAD PUSH1 0x1 PUSH1 0x1 PUSH1 0xB0 SHL SUB NOT AND PUSH1 0x1 PUSH1 0xA0 SHL PUSH2 0xFFFF DUP5 AND MUL PUSH1 0x1 PUSH1 0x1 PUSH1 0xA0 SHL SUB NOT AND OR PUSH1 0x1 PUSH1 0x1 PUSH1 0xA0 SHL SUB DUP5 AND SWAP1 DUP2 OR SWAP1 SWAP2 SSTORE PUSH1 0x40 MLOAD DUP3 DUP2 MSTORE PUSH32 0xE2497BD806EC41A6E0DD992C29A72EFC0EF8FEC9092D1978FD4A1E00B2F18304 SWAP1 PUSH1 0x20 ADD PUSH1 0x40 MLOAD DUP1 SWAP2 SUB SWAP1 LOG2 POP POP JUMP JUMPDEST PUSH2 0xC39 DUP1 PUSH2 0x109 PUSH1 0x0 CODECOPY PUSH1 0x0 RETURN INVALID PUSH1 0x80 PUSH1 0x40 MSTORE PUSH1 0x4 CALLDATASIZE LT PUSH2 0x55 JUMPI PUSH1 0x0 CALLDATALOAD PUSH1 0xE0 SHR DUP1 PUSH4 0x1E7AC488 EQ PUSH2 0x5A JUMPI DUP1 PUSH4 0x4A95762B EQ PUSH2 0x7C JUMPI DUP1 PUSH4 0x8DA5CB5B EQ PUSH2 0xB2 JUMPI DUP1 PUSH4 0xB7655D70 EQ PUSH2 0xEA JUMPI DUP1 PUSH4 0xD45573F6 EQ PUSH2 0xFD JUMPI DUP1 PUSH4 0xD6673FF5 EQ PUSH2 0x134 JUMPI JUMPDEST PUSH1 0x0 DUP1 REVERT JUMPDEST CALLVALUE DUP1 ISZERO PUSH2 0x66 JUMPI PUSH1 0x0 DUP1 REVERT JUMPDEST POP PUSH2 0x7A PUSH2 0x75 CALLDATASIZE PUSH1 0x4 PUSH2 0x829 JUMP JUMPDEST PUSH2 0x13C JUMP JUMPDEST STOP JUMPDEST CALLVALUE DUP1 ISZERO PUSH2 0x88 JUMPI PUSH1 0x0 DUP1 REVERT JUMPDEST POP PUSH2 0x9C PUSH2 0x97 CALLDATASIZE PUSH1 0x4 PUSH2 0x853 JUMP JUMPDEST PUSH2 0x19A JUMP JUMPDEST PUSH1 0x40 MLOAD PUSH2 0xA9 SWAP2 SWAP1 PUSH2 0x8CA JUMP JUMPDEST PUSH1 0x40 MLOAD DUP1 SWAP2 SUB SWAP1 RETURN JUMPDEST CALLVALUE DUP1 ISZERO PUSH2 0xBE JUMPI PUSH1 0x0 DUP1 REVERT JUMPDEST POP PUSH1 0x3 SLOAD PUSH2 0xD2 SWAP1 PUSH1 0x1 PUSH1 0x1 PUSH1 0xA0 SHL SUB AND DUP2 JUMP JUMPDEST PUSH1 0x40 MLOAD PUSH1 0x1 PUSH1 0x1 PUSH1 0xA0 SHL SUB SWAP1 SWAP2 AND DUP2 MSTORE PUSH1 0x20 ADD PUSH2 0xA9 JUMP JUMPDEST PUSH2 0x7A PUSH2 0xF8 CALLDATASIZE PUSH1 0x4 PUSH2 0x8F3 JUMP JUMPDEST PUSH2 0x28E JUMP JUMPDEST CALLVALUE DUP1 ISZERO PUSH2 0x109 JUMPI PUSH1 0x0 DUP1 REVERT JUMPDEST POP PUSH1 0x0 SLOAD PUSH1 0x40 DUP1 MLOAD PUSH1 0x1 PUSH1 0x1 PUSH1 0xA0 SHL SUB DUP4 AND DUP2 MSTORE PUSH1 0x1 PUSH1 0xA0 SHL SWAP1 SWAP3 DIV PUSH2 0xFFFF AND PUSH1 0x20 DUP4 ADD MSTORE ADD PUSH2 0xA9 JUMP JUMPDEST PUSH2 0x7A PUSH2 0x398 JUMP JUMPDEST PUSH1 0x3 SLOAD PUSH1 0x1 PUSH1 0x1 PUSH1 0xA0 SHL SUB AND CALLER EQ PUSH2 0x18C JUMPI PUSH1 0x40 MLOAD PUSH3 0x461BCD PUSH1 0xE5 SHL DUP2 MSTORE PUSH1 0x20 PUSH1 0x4 DUP3 ADD MSTORE PUSH1 0xE PUSH1 0x24 DUP3 ADD MSTORE PUSH14 0x139BDD08185D5D1A1BDC9A5E9959 PUSH1 0x92 SHL PUSH1 0x44 DUP3 ADD MSTORE PUSH1 0x64 ADD JUMPDEST PUSH1 0x40 MLOAD DUP1 SWAP2 SUB SWAP1 REVERT JUMPDEST PUSH2 0x196 DUP3 DUP3 PUSH2 0x523 JUMP JUMPDEST POP POP JUMP JUMPDEST PUSH1 0x1 PUSH1 0x1 PUSH1 0xA0 SHL SUB DUP2 AND PUSH1 0x0 SWAP1 DUP2 MSTORE PUSH1 0x1 PUSH1 0x20 MSTORE PUSH1 0x40 DUP2 KECCAK256 DUP1 SLOAD PUSH1 0x60 SWAP3 SWAP2 SWAP1 PUSH2 0x1C2 SWAP1 PUSH2 0x9A4 JUMP JUMPDEST DUP1 PUSH1 0x1F ADD PUSH1 0x20 DUP1 SWAP2 DIV MUL PUSH1 0x20 ADD PUSH1 0x40 MLOAD SWAP1 DUP2 ADD PUSH1 0x40 MSTORE DUP1 SWAP3 SWAP2 SWAP1 DUP2 DUP2 MSTORE PUSH1 0x20 ADD DUP3 DUP1 SLOAD PUSH2 0x1EE SWAP1 PUSH2 0x9A4 JUMP JUMPDEST DUP1 ISZERO PUSH2 0x23B JUMPI DUP1 PUSH1 0x1F LT PUSH2 0x210 JUMPI PUSH2 0x100 DUP1 DUP4 SLOAD DIV MUL DUP4 MSTORE SWAP2 PUSH1 0x20 ADD SWAP2 PUSH2 0x23B JUMP JUMPDEST DUP3 ADD SWAP2 SWAP1 PUSH1 0x0 MSTORE PUSH1 0x20 PUSH1 0x0 KECCAK256 SWAP1 JUMPDEST DUP2 SLOAD DUP2 MSTORE SWAP1 PUSH1 0x1 ADD SWAP1 PUSH1 0x20 ADD DUP1 DUP4 GT PUSH2 0x21E JUMPI DUP3 SWAP1 SUB PUSH1 0x1F AND DUP3 ADD SWAP2 JUMPDEST POP POP POP POP POP SWAP1 POP DUP1 MLOAD PUSH1 0x0 EQ ISZERO PUSH2 0x288 JUMPI PUSH1 0x40 MLOAD PUSH3 0x461BCD PUSH1 0xE5 SHL DUP2 MSTORE PUSH1 0x20 PUSH1 0x4 DUP3 ADD MSTORE PUSH1 0x11 PUSH1 0x24 DUP3 ADD MSTORE PUSH17 0x105412481AD95E481B9BDD08199BDD5B99 PUSH1 0x7A SHL PUSH1 0x44 DUP3 ADD MSTORE PUSH1 0x64 ADD PUSH2 0x183 JUMP JUMPDEST SWAP3 SWAP2 POP POP JUMP JUMPDEST PUSH1 0x0 PUSH2 0x299 DUP3 PUSH2 0x5CB JUMP JUMPDEST PUSH1 0x0 DUP1 SLOAD SWAP2 SWAP3 POP PUSH1 0x1 PUSH1 0x1 PUSH1 0xA0 SHL SUB DUP3 AND SWAP2 PUSH1 0x1 PUSH1 0xA0 SHL SWAP1 DIV PUSH2 0xFFFF AND SWAP1 PUSH2 0x3E8 PUSH2 0x2C4 DUP4 CALLVALUE PUSH2 0x9F5 JUMP JUMPDEST PUSH2 0x2CE SWAP2 SWAP1 PUSH2 0xA2A JUMP JUMPDEST SWAP1 POP PUSH1 0x0 PUSH2 0x2DC DUP3 CALLVALUE PUSH2 0xA3E JUMP JUMPDEST PUSH1 0x40 MLOAD SWAP1 SWAP2 POP PUSH1 0x1 PUSH1 0x1 PUSH1 0xA0 SHL SUB DUP7 AND SWAP1 DUP3 ISZERO PUSH2 0x8FC MUL SWAP1 DUP4 SWAP1 PUSH1 0x0 DUP2 DUP2 DUP2 DUP6 DUP9 DUP9 CALL SWAP4 POP POP POP POP ISZERO DUP1 ISZERO PUSH2 0x315 JUMPI RETURNDATASIZE PUSH1 0x0 DUP1 RETURNDATACOPY RETURNDATASIZE PUSH1 0x0 REVERT JUMPDEST POP PUSH1 0x40 MLOAD PUSH1 0x1 PUSH1 0x1 PUSH1 0xA0 SHL SUB DUP6 AND SWAP1 DUP4 ISZERO PUSH2 0x8FC MUL SWAP1 DUP5 SWAP1 PUSH1 0x0 DUP2 DUP2 DUP2 DUP6 DUP9 DUP9 CALL SWAP4 POP POP POP POP ISZERO DUP1 ISZERO PUSH2 0x34C JUMPI RETURNDATASIZE PUSH1 0x0 DUP1 RETURNDATACOPY RETURNDATASIZE PUSH1 0x0 REVERT JUMPDEST POP DUP5 PUSH1 0x1 PUSH1 0x1 PUSH1 0xA0 SHL SUB AND PUSH32 0xF09276BC05D650567D338ACBE6495A3DDFDFCE09933F479E23C1AC7FA9650476 DUP8 CALLVALUE PUSH1 0x40 MLOAD PUSH2 0x388 SWAP3 SWAP2 SWAP1 PUSH2 0xA55 JUMP JUMPDEST PUSH1 0x40 MLOAD DUP1 SWAP2 SUB SWAP1 LOG2 POP POP POP POP POP POP JUMP JUMPDEST CALLER PUSH1 0x0 SWAP1 DUP2 MSTORE PUSH1 0x1 PUSH1 0x20 MSTORE PUSH1 0x40 SWAP1 KECCAK256 DUP1 SLOAD PUSH2 0x3B2 SWAP1 PUSH2 0x9A4 JUMP JUMPDEST ISZERO SWAP1 POP PUSH2 0x3FA JUMPI PUSH1 0x40 MLOAD PUSH3 0x461BCD PUSH1 0xE5 SHL DUP2 MSTORE PUSH1 0x20 PUSH1 0x4 DUP3 ADD MSTORE PUSH1 0x16 PUSH1 0x24 DUP3 ADD MSTORE PUSH22 0x415049206B657920616C726561647920657869737473 PUSH1 0x50 SHL PUSH1 0x44 DUP3 ADD MSTORE PUSH1 0x64 ADD PUSH2 0x183 JUMP JUMPDEST PUSH1 0x40 MLOAD PUSH12 0xFFFFFFFFFFFFFFFFFFFFFFFF NOT CALLER PUSH1 0x60 SHL AND PUSH1 0x20 DUP3 ADD MSTORE TIMESTAMP PUSH1 0x34 DUP3 ADD MSTORE DIFFICULTY PUSH1 0x54 DUP3 ADD MSTORE PUSH1 0x0 SWAP1 PUSH1 0x74 ADD PUSH1 0x40 MLOAD PUSH1 0x20 DUP2 DUP4 SUB SUB DUP2 MSTORE SWAP1 PUSH1 0x40 MSTORE DUP1 MLOAD SWAP1 PUSH1 0x20 ADD KECCAK256 SWAP1 POP PUSH1 0x0 PUSH2 0x44A DUP3 PUSH2 0x646 JUMP JUMPDEST CALLER PUSH1 0x0 SWAP1 DUP2 MSTORE PUSH1 0x1 PUSH1 0x20 SWAP1 DUP2 MSTORE PUSH1 0x40 SWAP1 SWAP2 KECCAK256 DUP3 MLOAD SWAP3 SWAP4 POP PUSH2 0x46F SWAP3 SWAP1 SWAP2 DUP5 ADD SWAP1 PUSH2 0x779 JUMP JUMPDEST POP CALLER PUSH1 0x2 DUP3 PUSH1 0x40 MLOAD PUSH2 0x481 SWAP2 SWAP1 PUSH2 0xA77 JUMP JUMPDEST SWAP1 DUP2 MSTORE PUSH1 0x40 MLOAD SWAP1 DUP2 SWAP1 SUB PUSH1 0x20 ADD DUP2 KECCAK256 DUP1 SLOAD PUSH1 0x1 PUSH1 0x1 PUSH1 0xA0 SHL SUB SWAP4 SWAP1 SWAP4 AND PUSH1 0x1 PUSH1 0x1 PUSH1 0xA0 SHL SUB NOT SWAP1 SWAP4 AND SWAP3 SWAP1 SWAP3 OR SWAP1 SWAP2 SSTORE PUSH1 0x2 SWAP1 PUSH2 0x4BF SWAP1 DUP4 SWAP1 PUSH2 0xA77 JUMP JUMPDEST SWAP1 DUP2 MSTORE PUSH1 0x40 DUP1 MLOAD SWAP2 DUP3 SWAP1 SUB PUSH1 0x20 SWAP1 DUP2 ADD DUP4 KECCAK256 SLOAD CALLER PUSH1 0x0 SWAP1 DUP2 MSTORE PUSH1 0x1 SWAP1 SWAP3 MSTORE SWAP2 SWAP1 KECCAK256 PUSH1 0x1 PUSH1 0x1 PUSH1 0xA0 SHL SUB SWAP1 SWAP2 AND SWAP2 PUSH32 0xC8288886895912C0D876E8DFA30D39A86F2547D592F2CD8378D622484366445E SWAP2 PUSH2 0x517 SWAP2 PUSH2 0xA93 JUMP JUMPDEST PUSH1 0x40 MLOAD DUP1 SWAP2 SUB SWAP1 LOG2 POP POP JUMP JUMPDEST PUSH2 0x2710 DUP2 GT ISZERO PUSH2 0x567 JUMPI PUSH1 0x40 MLOAD PUSH3 0x461BCD PUSH1 0xE5 SHL DUP2 MSTORE PUSH1 0x20 PUSH1 0x4 DUP3 ADD MSTORE PUSH1 0xF PUSH1 0x24 DUP3 ADD MSTORE PUSH15 0x45786365656473206D617820627073 PUSH1 0x88 SHL PUSH1 0x44 DUP3 ADD MSTORE PUSH1 0x64 ADD PUSH2 0x183 JUMP JUMPDEST PUSH1 0x0 DUP1 SLOAD PUSH1 0x1 PUSH1 0x1 PUSH1 0xB0 SHL SUB NOT AND PUSH1 0x1 PUSH1 0xA0 SHL PUSH2 0xFFFF DUP5 AND MUL PUSH1 0x1 PUSH1 0x1 PUSH1 0xA0 SHL SUB NOT AND OR PUSH1 0x1 PUSH1 0x1 PUSH1 0xA0 SHL SUB DUP5 AND SWAP1 DUP2 OR SWAP1 SWAP2 SSTORE PUSH1 0x40 MLOAD DUP3 DUP2 MSTORE PUSH32 0xE2497BD806EC41A6E0DD992C29A72EFC0EF8FEC9092D1978FD4A1E00B2F18304 SWAP1 PUSH1 0x20 ADD PUSH2 0x517 JUMP JUMPDEST PUSH1 0x0 DUP1 PUSH1 0x2 DUP4 PUSH1 0x40 MLOAD PUSH2 0x5DE SWAP2 SWAP1 PUSH2 0xA77 JUMP JUMPDEST SWAP1 DUP2 MSTORE PUSH1 0x40 MLOAD SWAP1 DUP2 SWAP1 SUB PUSH1 0x20 ADD SWAP1 KECCAK256 SLOAD PUSH1 0x1 PUSH1 0x1 PUSH1 0xA0 SHL SUB AND SWAP1 POP DUP1 PUSH2 0x288 JUMPI PUSH1 0x40 MLOAD PUSH3 0x461BCD PUSH1 0xE5 SHL DUP2 MSTORE PUSH1 0x20 PUSH1 0x4 DUP3 ADD MSTORE PUSH1 0x1D PUSH1 0x24 DUP3 ADD MSTORE PUSH32 0x41646472657373206E6F7420666F756E6420666F7220415049206B6579000000 PUSH1 0x44 DUP3 ADD MSTORE PUSH1 0x64 ADD PUSH2 0x183 JUMP JUMPDEST PUSH1 0x40 DUP1 MLOAD DUP2 DUP2 MSTORE PUSH1 0x60 DUP2 DUP2 ADD DUP4 MSTORE SWAP2 PUSH1 0x0 SWAP2 DUP3 SWAP2 PUSH1 0x20 DUP3 ADD DUP2 DUP1 CALLDATASIZE DUP4 CALLDATACOPY ADD SWAP1 POP POP SWAP1 POP PUSH1 0x0 SWAP2 POP JUMPDEST PUSH1 0x20 DUP3 PUSH1 0xFF AND LT ISZERO PUSH2 0x740 JUMPI PUSH1 0x0 DUP5 DUP4 PUSH1 0xFF AND PUSH1 0x20 DUP2 LT PUSH2 0x691 JUMPI PUSH2 0x691 PUSH2 0xB3B JUMP JUMPDEST BYTE SWAP1 POP PUSH2 0x6A7 PUSH2 0x6A2 PUSH1 0x10 DUP4 PUSH2 0xB51 JUMP JUMPDEST PUSH2 0x747 JUMP JUMPDEST DUP3 PUSH2 0x6B3 DUP6 PUSH1 0x2 PUSH2 0xB73 JUMP JUMPDEST PUSH1 0xFF AND DUP2 MLOAD DUP2 LT PUSH2 0x6C6 JUMPI PUSH2 0x6C6 PUSH2 0xB3B JUMP JUMPDEST PUSH1 0x20 ADD ADD SWAP1 PUSH1 0x1 PUSH1 0x1 PUSH1 0xF8 SHL SUB NOT AND SWAP1 DUP2 PUSH1 0x0 BYTE SWAP1 MSTORE8 POP PUSH2 0x6EB PUSH2 0x6A2 PUSH1 0x10 DUP4 PUSH2 0xB9C JUMP JUMPDEST DUP3 PUSH2 0x6F7 DUP6 PUSH1 0x2 PUSH2 0xB73 JUMP JUMPDEST PUSH2 0x702 SWAP1 PUSH1 0x1 PUSH2 0xBBE JUMP JUMPDEST PUSH1 0xFF AND DUP2 MLOAD DUP2 LT PUSH2 0x715 JUMPI PUSH2 0x715 PUSH2 0xB3B JUMP JUMPDEST PUSH1 0x20 ADD ADD SWAP1 PUSH1 0x1 PUSH1 0x1 PUSH1 0xF8 SHL SUB NOT AND SWAP1 DUP2 PUSH1 0x0 BYTE SWAP1 MSTORE8 POP POP DUP2 DUP1 PUSH2 0x738 SWAP1 PUSH2 0xBE3 JUMP JUMPDEST SWAP3 POP POP PUSH2 0x66E JUMP JUMPDEST SWAP4 SWAP3 POP POP POP JUMP JUMPDEST PUSH1 0x0 PUSH1 0xA DUP3 PUSH1 0xFF AND LT ISZERO PUSH2 0x769 JUMPI PUSH2 0x760 DUP3 PUSH1 0x30 PUSH2 0xBBE JUMP JUMPDEST PUSH1 0xF8 SHL SWAP3 SWAP2 POP POP JUMP JUMPDEST PUSH2 0x760 DUP3 PUSH1 0x57 PUSH2 0xBBE JUMP JUMPDEST SWAP2 SWAP1 POP JUMP JUMPDEST DUP3 DUP1 SLOAD PUSH2 0x785 SWAP1 PUSH2 0x9A4 JUMP JUMPDEST SWAP1 PUSH1 0x0 MSTORE PUSH1 0x20 PUSH1 0x0 KECCAK256 SWAP1 PUSH1 0x1F ADD PUSH1 0x20 SWAP1 DIV DUP2 ADD SWAP3 DUP3 PUSH2 0x7A7 JUMPI PUSH1 0x0 DUP6 SSTORE PUSH2 0x7ED JUMP JUMPDEST DUP3 PUSH1 0x1F LT PUSH2 0x7C0 JUMPI DUP1 MLOAD PUSH1 0xFF NOT AND DUP4 DUP1 ADD OR DUP6 SSTORE PUSH2 0x7ED JUMP JUMPDEST DUP3 DUP1 ADD PUSH1 0x1 ADD DUP6 SSTORE DUP3 ISZERO PUSH2 0x7ED JUMPI SWAP2 DUP3 ADD JUMPDEST DUP3 DUP2 GT ISZERO PUSH2 0x7ED JUMPI DUP3 MLOAD DUP3 SSTORE SWAP2 PUSH1 0x20 ADD SWAP2 SWAP1 PUSH1 0x1 ADD SWAP1 PUSH2 0x7D2 JUMP JUMPDEST POP PUSH2 0x7F9 SWAP3 SWAP2 POP PUSH2 0x7FD JUMP JUMPDEST POP SWAP1 JUMP JUMPDEST JUMPDEST DUP1 DUP3 GT ISZERO PUSH2 0x7F9 JUMPI PUSH1 0x0 DUP2 SSTORE PUSH1 0x1 ADD PUSH2 0x7FE JUMP JUMPDEST DUP1 CALLDATALOAD PUSH1 0x1 PUSH1 0x1 PUSH1 0xA0 SHL SUB DUP2 AND DUP2 EQ PUSH2 0x774 JUMPI PUSH1 0x0 DUP1 REVERT JUMPDEST PUSH1 0x0 DUP1 PUSH1 0x40 DUP4 DUP6 SUB SLT ISZERO PUSH2 0x83C JUMPI PUSH1 0x0 DUP1 REVERT JUMPDEST PUSH2 0x845 DUP4 PUSH2 0x812 JUMP JUMPDEST SWAP5 PUSH1 0x20 SWAP4 SWAP1 SWAP4 ADD CALLDATALOAD SWAP4 POP POP POP JUMP JUMPDEST PUSH1 0x0 PUSH1 0x20 DUP3 DUP5 SUB SLT ISZERO PUSH2 0x865 JUMPI PUSH1 0x0 DUP1 REVERT JUMPDEST PUSH2 0x740 DUP3 PUSH2 0x812 JUMP JUMPDEST PUSH1 0x0 JUMPDEST DUP4 DUP2 LT ISZERO PUSH2 0x889 JUMPI DUP2 DUP2 ADD MLOAD DUP4 DUP3 ADD MSTORE PUSH1 0x20 ADD PUSH2 0x871 JUMP JUMPDEST DUP4 DUP2 GT ISZERO PUSH2 0x898 JUMPI PUSH1 0x0 DUP5 DUP5 ADD MSTORE JUMPDEST POP POP POP POP JUMP JUMPDEST PUSH1 0x0 DUP2 MLOAD DUP1 DUP5 MSTORE PUSH2 0x8B6 DUP2 PUSH1 0x20 DUP7 ADD PUSH1 0x20 DUP7 ADD PUSH2 0x86E JUMP JUMPDEST PUSH1 0x1F ADD PUSH1 0x1F NOT AND SWAP3 SWAP1 SWAP3 ADD PUSH1 0x20 ADD SWAP3 SWAP2 POP POP JUMP JUMPDEST PUSH1 0x20 DUP2 MSTORE PUSH1 0x0 PUSH2 0x740 PUSH1 0x20 DUP4 ADD DUP5 PUSH2 0x89E JUMP JUMPDEST PUSH4 0x4E487B71 PUSH1 0xE0 SHL PUSH1 0x0 MSTORE PUSH1 0x41 PUSH1 0x4 MSTORE PUSH1 0x24 PUSH1 0x0 REVERT JUMPDEST PUSH1 0x0 PUSH1 0x20 DUP3 DUP5 SUB SLT ISZERO PUSH2 0x905 JUMPI PUSH1 0x0 DUP1 REVERT JUMPDEST DUP2 CALLDATALOAD PUSH8 0xFFFFFFFFFFFFFFFF DUP1 DUP3 GT ISZERO PUSH2 0x91D JUMPI PUSH1 0x0 DUP1 REVERT JUMPDEST DUP2 DUP5 ADD SWAP2 POP DUP5 PUSH1 0x1F DUP4 ADD SLT PUSH2 0x931 JUMPI PUSH1 0x0 DUP1 REVERT JUMPDEST DUP2 CALLDATALOAD DUP2 DUP2 GT ISZERO PUSH2 0x943 JUMPI PUSH2 0x943 PUSH2 0x8DD JUMP JUMPDEST PUSH1 0x40 MLOAD PUSH1 0x1F DUP3 ADD PUSH1 0x1F NOT SWAP1 DUP2 AND PUSH1 0x3F ADD AND DUP2 ADD SWAP1 DUP4 DUP3 GT DUP2 DUP4 LT OR ISZERO PUSH2 0x96B JUMPI PUSH2 0x96B PUSH2 0x8DD JUMP JUMPDEST DUP2 PUSH1 0x40 MSTORE DUP3 DUP2 MSTORE DUP8 PUSH1 0x20 DUP5 DUP8 ADD ADD GT ISZERO PUSH2 0x984 JUMPI PUSH1 0x0 DUP1 REVERT JUMPDEST DUP3 PUSH1 0x20 DUP7 ADD PUSH1 0x20 DUP4 ADD CALLDATACOPY PUSH1 0x0 SWAP3 DUP2 ADD PUSH1 0x20 ADD SWAP3 SWAP1 SWAP3 MSTORE POP SWAP6 SWAP5 POP POP POP POP POP JUMP JUMPDEST PUSH1 0x1 DUP2 DUP2 SHR SWAP1 DUP3 AND DUP1 PUSH2 0x9B8 JUMPI PUSH1 0x7F DUP3 AND SWAP2 POP JUMPDEST PUSH1 0x20 DUP3 LT DUP2 EQ ISZERO PUSH2 0x9D9 JUMPI PUSH4 0x4E487B71 PUSH1 0xE0 SHL PUSH1 0x0 MSTORE PUSH1 0x22 PUSH1 0x4 MSTORE PUSH1 0x24 PUSH1 0x0 REVERT JUMPDEST POP SWAP2 SWAP1 POP JUMP JUMPDEST PUSH4 0x4E487B71 PUSH1 0xE0 SHL PUSH1 0x0 MSTORE PUSH1 0x11 PUSH1 0x4 MSTORE PUSH1 0x24 PUSH1 0x0 REVERT JUMPDEST PUSH1 0x0 DUP2 PUSH1 0x0 NOT DIV DUP4 GT DUP3 ISZERO ISZERO AND ISZERO PUSH2 0xA0F JUMPI PUSH2 0xA0F PUSH2 0x9DF JUMP JUMPDEST POP MUL SWAP1 JUMP JUMPDEST PUSH4 0x4E487B71 PUSH1 0xE0 SHL PUSH1 0x0 MSTORE PUSH1 0x12 PUSH1 0x4 MSTORE PUSH1 0x24 PUSH1 0x0 REVERT JUMPDEST PUSH1 0x0 DUP3 PUSH2 0xA39 JUMPI PUSH2 0xA39 PUSH2 0xA14 JUMP JUMPDEST POP DIV SWAP1 JUMP JUMPDEST PUSH1 0x0 DUP3 DUP3 LT ISZERO PUSH2 0xA50 JUMPI PUSH2 0xA50 PUSH2 0x9DF JUMP JUMPDEST POP SUB SWAP1 JUMP JUMPDEST PUSH1 0x40 DUP2 MSTORE PUSH1 0x0 PUSH2 0xA68 PUSH1 0x40 DUP4 ADD DUP6 PUSH2 0x89E JUMP JUMPDEST SWAP1 POP DUP3 PUSH1 0x20 DUP4 ADD MSTORE SWAP4 SWAP3 POP POP POP JUMP JUMPDEST PUSH1 0x0 DUP3 MLOAD PUSH2 0xA89 DUP2 DUP5 PUSH1 0x20 DUP8 ADD PUSH2 0x86E JUMP JUMPDEST SWAP2 SWAP1 SWAP2 ADD SWAP3 SWAP2 POP POP JUMP JUMPDEST PUSH1 0x0 PUSH1 0x20 DUP1 DUP4 MSTORE PUSH1 0x0 DUP5 SLOAD DUP2 PUSH1 0x1 DUP3 DUP2 SHR SWAP2 POP DUP1 DUP4 AND DUP1 PUSH2 0xAB5 JUMPI PUSH1 0x7F DUP4 AND SWAP3 POP JUMPDEST DUP6 DUP4 LT DUP2 EQ ISZERO PUSH2 0xAD3 JUMPI PUSH4 0x4E487B71 PUSH1 0xE0 SHL DUP6 MSTORE PUSH1 0x22 PUSH1 0x4 MSTORE PUSH1 0x24 DUP6 REVERT JUMPDEST DUP8 DUP7 ADD DUP4 DUP2 MSTORE PUSH1 0x20 ADD DUP2 DUP1 ISZERO PUSH2 0xAF0 JUMPI PUSH1 0x1 DUP2 EQ PUSH2 0xB01 JUMPI PUSH2 0xB2C JUMP JUMPDEST PUSH1 0xFF NOT DUP7 AND DUP3 MSTORE DUP8 DUP3 ADD SWAP7 POP PUSH2 0xB2C JUMP JUMPDEST PUSH1 0x0 DUP12 DUP2 MSTORE PUSH1 0x20 SWAP1 KECCAK256 PUSH1 0x0 JUMPDEST DUP7 DUP2 LT ISZERO PUSH2 0xB26 JUMPI DUP2 SLOAD DUP5 DUP3 ADD MSTORE SWAP1 DUP6 ADD SWAP1 DUP10 ADD PUSH2 0xB0D JUMP JUMPDEST DUP4 ADD SWAP8 POP POP JUMPDEST POP SWAP5 SWAP10 SWAP9 POP POP POP POP POP POP POP POP POP JUMP JUMPDEST PUSH4 0x4E487B71 PUSH1 0xE0 SHL PUSH1 0x0 MSTORE PUSH1 0x32 PUSH1 0x4 MSTORE PUSH1 0x24 PUSH1 0x0 REVERT JUMPDEST PUSH1 0x0 PUSH1 0xFF DUP4 AND DUP1 PUSH2 0xB64 JUMPI PUSH2 0xB64 PUSH2 0xA14 JUMP JUMPDEST DUP1 PUSH1 0xFF DUP5 AND DIV SWAP2 POP POP SWAP3 SWAP2 POP POP JUMP JUMPDEST PUSH1 0x0 PUSH1 0xFF DUP3 AND PUSH1 0xFF DUP5 AND DUP2 PUSH1 0xFF DIV DUP2 GT DUP3 ISZERO ISZERO AND ISZERO PUSH2 0xB94 JUMPI PUSH2 0xB94 PUSH2 0x9DF JUMP JUMPDEST MUL SWAP4 SWAP3 POP POP POP JUMP JUMPDEST PUSH1 0x0 PUSH1 0xFF DUP4 AND DUP1 PUSH2 0xBAF JUMPI PUSH2 0xBAF PUSH2 0xA14 JUMP JUMPDEST DUP1 PUSH1 0xFF DUP5 AND MOD SWAP2 POP POP SWAP3 SWAP2 POP POP JUMP JUMPDEST PUSH1 0x0 PUSH1 0xFF DUP3 AND PUSH1 0xFF DUP5 AND DUP1 PUSH1 0xFF SUB DUP3 GT ISZERO PUSH2 0xBDB JUMPI PUSH2 0xBDB PUSH2 0x9DF JUMP JUMPDEST ADD SWAP4 SWAP3 POP POP POP JUMP JUMPDEST PUSH1 0x0 PUSH1 0xFF DUP3 AND PUSH1 0xFF DUP2 EQ ISZERO PUSH2 0xBFA JUMPI PUSH2 0xBFA PUSH2 0x9DF JUMP JUMPDEST PUSH1 0x1 ADD SWAP3 SWAP2 POP POP JUMP INVALID LOG2 PUSH5 0x6970667358 0x22 SLT KECCAK256 0xBC 0xB6 PUSH2 0x66B6 SLT SWAP4 EXTCODESIZE 0xBC SELFDESTRUCT 0xAD PUSH26 0x3D82B660C67071E939E23F0080D5795C1C18DFE964736F6C6343 STOP ADDMOD MULMOD STOP CALLER "},"methodIdentifiers":{"generateApiKey()":"d6673ff5","getApiKey(address)":"4a95762b","getPlatformFeeInfo()":"d45573f6","owner()":"8da5cb5b","processPayment(string)":"b7655d70","setPlatformFeeInfo(address,uint256)":"1e7ac488"}}}}}