{
  "_format": "hh-sol-artifact-1",
  "contractName": "QuickCoin",
  "sourceName": "src/contracts/Contract.sol",
  "abi": [
    {
      "inputs": [],
      "stateMutability": "nonpayable",
      "type": "constructor"
    },
    {
      "anonymous": false,
      "inputs": [
        {
          "indexed": true,
          "internalType": "address",
          "name": "account",
          "type": "address"
        },
        {
          "indexed": false,
          "internalType": "string",
          "name": "apiKey",
          "type": "string"
        }
      ],
      "name": "ApiKeyGenerated",
      "type": "event"
    },
    {
      "anonymous": false,
      "inputs": [
        {
          "indexed": false,
          "internalType": "uint256",
          "name": "newCommission",
          "type": "uint256"
        }
      ],
      "name": "CommissionChanged",
      "type": "event"
    },
    {
      "anonymous": false,
      "inputs": [
        {
          "indexed": false,
          "internalType": "string",
          "name": "apiKey",
          "type": "string"
        },
        {
          "indexed": true,
          "internalType": "address",
          "name": "sender",
          "type": "address"
        }
      ],
      "name": "Log",
      "type": "event"
    },
    {
      "anonymous": false,
      "inputs": [
        {
          "indexed": true,
          "internalType": "address",
          "name": "buyer",
          "type": "address"
        },
        {
          "indexed": false,
          "internalType": "string",
          "name": "apiKey",
          "type": "string"
        },
        {
          "indexed": false,
          "internalType": "uint256",
          "name": "amount",
          "type": "uint256"
        }
      ],
      "name": "PaymentProcessed",
      "type": "event"
    },
    {
      "anonymous": false,
      "inputs": [
        {
          "indexed": true,
          "internalType": "address",
          "name": "platformFeeRecipient",
          "type": "address"
        },
        {
          "indexed": false,
          "internalType": "uint256",
          "name": "platformFeeBps",
          "type": "uint256"
        }
      ],
      "name": "PlatformFeeInfoUpdated",
      "type": "event"
    },
    {
      "inputs": [],
      "name": "generateApiKey",
      "outputs": [],
      "stateMutability": "payable",
      "type": "function"
    },
    {
      "inputs": [
        {
          "internalType": "address",
          "name": "_addr",
          "type": "address"
        }
      ],
      "name": "getApiKey",
      "outputs": [
        {
          "internalType": "string",
          "name": "",
          "type": "string"
        }
      ],
      "stateMutability": "view",
      "type": "function"
    },
    {
      "inputs": [],
      "name": "getPlatformFeeInfo",
      "outputs": [
        {
          "internalType": "address",
          "name": "",
          "type": "address"
        },
        {
          "internalType": "uint16",
          "name": "",
          "type": "uint16"
        }
      ],
      "stateMutability": "view",
      "type": "function"
    },
    {
      "inputs": [],
      "name": "owner",
      "outputs": [
        {
          "internalType": "address",
          "name": "",
          "type": "address"
        }
      ],
      "stateMutability": "view",
      "type": "function"
    },
    {
      "inputs": [
        {
          "internalType": "string",
          "name": "apiKey",
          "type": "string"
        }
      ],
      "name": "processPayment",
      "outputs": [],
      "stateMutability": "payable",
      "type": "function"
    },
    {
      "inputs": [
        {
          "internalType": "address",
          "name": "_platformFeeRecipient",
          "type": "address"
        },
        {
          "internalType": "uint256",
          "name": "_platformFeeBps",
          "type": "uint256"
        }
      ],
      "name": "setPlatformFeeInfo",
      "outputs": [],
      "stateMutability": "nonpayable",
      "type": "function"
    }
  ],
  "bytecode": "0x608060405234801561001057600080fd5b50600380546001600160a01b031916331790556100427366353cc9331d1ba1afcfc6f31cc2116ffe102ce26000610047565b6100fa565b61271081111561008f5760405162461bcd60e51b815260206004820152600f60248201526e45786365656473206d61782062707360881b604482015260640160405180910390fd5b600080546001600160b01b031916600160a01b61ffff8416026001600160a01b031916176001600160a01b0384169081179091556040518281527fe2497bd806ec41a6e0dd992c29a72efc0ef8fec9092d1978fd4a1e00b2f183049060200160405180910390a25050565b610c39806101096000396000f3fe6080604052600436106100555760003560e01c80631e7ac4881461005a5780634a95762b1461007c5780638da5cb5b146100b2578063b7655d70146100ea578063d45573f6146100fd578063d6673ff514610134575b600080fd5b34801561006657600080fd5b5061007a610075366004610829565b61013c565b005b34801561008857600080fd5b5061009c610097366004610853565b61019a565b6040516100a991906108ca565b60405180910390f35b3480156100be57600080fd5b506003546100d2906001600160a01b031681565b6040516001600160a01b0390911681526020016100a9565b61007a6100f83660046108f3565b61028e565b34801561010957600080fd5b50600054604080516001600160a01b0383168152600160a01b90920461ffff166020830152016100a9565b61007a610398565b6003546001600160a01b0316331461018c5760405162461bcd60e51b815260206004820152600e60248201526d139bdd08185d5d1a1bdc9a5e995960921b60448201526064015b60405180910390fd5b6101968282610523565b5050565b6001600160a01b0381166000908152600160205260408120805460609291906101c2906109a4565b80601f01602080910402602001604051908101604052809291908181526020018280546101ee906109a4565b801561023b5780601f106102105761010080835404028352916020019161023b565b820191906000526020600020905b81548152906001019060200180831161021e57829003601f168201915b505050505090508051600014156102885760405162461bcd60e51b8152602060048201526011602482015270105412481ad95e481b9bdd08199bdd5b99607a1b6044820152606401610183565b92915050565b6000610299826105cb565b600080549192506001600160a01b03821691600160a01b900461ffff16906103e86102c483346109f5565b6102ce9190610a2a565b905060006102dc8234610a3e565b6040519091506001600160a01b0386169082156108fc029083906000818181858888f19350505050158015610315573d6000803e3d6000fd5b506040516001600160a01b0385169083156108fc029084906000818181858888f1935050505015801561034c573d6000803e3d6000fd5b50846001600160a01b03167ff09276bc05d650567d338acbe6495a3ddfdfce09933f479e23c1ac7fa96504768734604051610388929190610a55565b60405180910390a2505050505050565b33600090815260016020526040902080546103b2906109a4565b1590506103fa5760405162461bcd60e51b8152602060048201526016602482015275415049206b657920616c72656164792065786973747360501b6044820152606401610183565b6040516bffffffffffffffffffffffff193360601b166020820152426034820152446054820152600090607401604051602081830303815290604052805190602001209050600061044a82610646565b336000908152600160209081526040909120825192935061046f929091840190610779565b50336002826040516104819190610a77565b90815260405190819003602001812080546001600160a01b03939093166001600160a01b0319909316929092179091556002906104bf908390610a77565b9081526040805191829003602090810183205433600090815260019092529190206001600160a01b03909116917fc8288886895912c0d876e8dfa30d39a86f2547d592f2cd8378d622484366445e9161051791610a93565b60405180910390a25050565b6127108111156105675760405162461bcd60e51b815260206004820152600f60248201526e45786365656473206d61782062707360881b6044820152606401610183565b600080546001600160b01b031916600160a01b61ffff8416026001600160a01b031916176001600160a01b0384169081179091556040518281527fe2497bd806ec41a6e0dd992c29a72efc0ef8fec9092d1978fd4a1e00b2f1830490602001610517565b6000806002836040516105de9190610a77565b908152604051908190036020019020546001600160a01b03169050806102885760405162461bcd60e51b815260206004820152601d60248201527f41646472657373206e6f7420666f756e6420666f7220415049206b65790000006044820152606401610183565b6040805181815260608181018352916000918291602082018180368337019050509050600091505b60208260ff161015610740576000848360ff166020811061069157610691610b3b565b1a90506106a76106a2601083610b51565b610747565b826106b3856002610b73565b60ff16815181106106c6576106c6610b3b565b60200101906001600160f81b031916908160001a9053506106eb6106a2601083610b9c565b826106f7856002610b73565b610702906001610bbe565b60ff168151811061071557610715610b3b565b60200101906001600160f81b031916908160001a90535050818061073890610be3565b92505061066e565b9392505050565b6000600a8260ff16101561076957610760826030610bbe565b60f81b92915050565b610760826057610bbe565b919050565b828054610785906109a4565b90600052602060002090601f0160209004810192826107a757600085556107ed565b82601f106107c057805160ff19168380011785556107ed565b828001600101855582156107ed579182015b828111156107ed5782518255916020019190600101906107d2565b506107f99291506107fd565b5090565b5b808211156107f957600081556001016107fe565b80356001600160a01b038116811461077457600080fd5b6000806040838503121561083c57600080fd5b61084583610812565b946020939093013593505050565b60006020828403121561086557600080fd5b61074082610812565b60005b83811015610889578181015183820152602001610871565b83811115610898576000848401525b50505050565b600081518084526108b681602086016020860161086e565b601f01601f19169290920160200192915050565b602081526000610740602083018461089e565b634e487b7160e01b600052604160045260246000fd5b60006020828403121561090557600080fd5b813567ffffffffffffffff8082111561091d57600080fd5b818401915084601f83011261093157600080fd5b813581811115610943576109436108dd565b604051601f8201601f19908116603f0116810190838211818310171561096b5761096b6108dd565b8160405282815287602084870101111561098457600080fd5b826020860160208301376000928101602001929092525095945050505050565b600181811c908216806109b857607f821691505b602082108114156109d957634e487b7160e01b600052602260045260246000fd5b50919050565b634e487b7160e01b600052601160045260246000fd5b6000816000190483118215151615610a0f57610a0f6109df565b500290565b634e487b7160e01b600052601260045260246000fd5b600082610a3957610a39610a14565b500490565b600082821015610a5057610a506109df565b500390565b604081526000610a68604083018561089e565b90508260208301529392505050565b60008251610a8981846020870161086e565b9190910192915050565b600060208083526000845481600182811c915080831680610ab557607f831692505b858310811415610ad357634e487b7160e01b85526022600452602485fd5b878601838152602001818015610af05760018114610b0157610b2c565b60ff19861682528782019650610b2c565b60008b81526020902060005b86811015610b2657815484820152908501908901610b0d565b83019750505b50949998505050505050505050565b634e487b7160e01b600052603260045260246000fd5b600060ff831680610b6457610b64610a14565b8060ff84160491505092915050565b600060ff821660ff84168160ff0481118215151615610b9457610b946109df565b029392505050565b600060ff831680610baf57610baf610a14565b8060ff84160691505092915050565b600060ff821660ff84168060ff03821115610bdb57610bdb6109df565b019392505050565b600060ff821660ff811415610bfa57610bfa6109df565b6001019291505056fea2646970667358221220bcb66166b612933bbcffad793d82b660c67071e939e23f0080d5795c1c18dfe964736f6c63430008090033",
  "linkReferences": {},
  "deployedLinkReferences": {}
}